:10000000F0C0000016C1000014C1000012C10000C1
:1000100010C100000EC100000CC100000AC10000A8
:1000200008C1000006C1000004C1000002C10000B8
:1000300000C10000FEC00000FCC00000FAC00000CB
:100040000C94A847F6C000000C947B500C94A75069
:10005000F0C00000EEC00000ECC00000EAC00000EC
:10006000E8C00000E6C0000007634236B79BD8A78F
:100070001A39685618AEBAAB558C1D3CB7CC5763CD
:10008000BD6DEDFD753EF6177231BF000000803F7B
:10009000001D3A2774694E53E8F5D2CF9C81A6BB68
:1000A000CDD0F7EAB9A4839E25381F02514C6B7658
:1000B000879ABDA0F3EEC9D46F7255481B06213C48
:1000C0004A57706D3E230419A2BF9885D6CBECF138
:1000D000130E2934677A5D40FBE6C1DC8F92B5A828
:1000E000DEC3E4F9AAB7908D362B0C11425F786518
:1000F0009489AEB3E0FDDAC77C61465B0815322F08
:100100005944637E2D30170AB1AC8B96C5D8FFE2F7
:10011000263B1C01524F6875CED3F4E9BAA7809DE7
:10012000EBF6D1CC9F82A5B8031E3924776A4D50D7
:10013000A1BC9B86D5C8EFF24954736E3D20071AC7
:100140006C71564B1805223F8499BEA3F0EDCAD7B7
:1001500035280F12415C7B66DDC0E7FAA9B4938EA7
:10016000F8E5C2DF8C91B6AB100D2A3764795E4397
:10017000B2AF8895C6DBFCE15A47607D2E33140987
:100180007F6245580B16312C978AADB0E3FED9C477
:1001900000000000240027002A00000000002500C5
:1001A00028002B00040404040404040402020202D4
:1001B000020203030303030301020408102040802A
:1001C00001020408102001020408102000000008A9
:1001D000000201000003040700000000000000000E
:1001E0000E5111241FBECFEFD8E0DEBFCDBF13E00C
:1001F000A0E0B1E0E4E4F6EA02C005900D92A83870
:10020000B107D9F726E0A8E8B3E001C01D92A536F2
:10021000B207E1F710E0C1EFD0E004C02197FE0182
:100220000E94A551C03FD107C9F70E9458430C94C2
:100230002053E6CECF93DF9300D000D0CDB7DEB70A
:1002400069837A838B839C8389819A81AB81BC810A
:100250000E97A105B10530F48981825F60E00E94AC
:10026000764A04C0898160E00E94764A89819A8139
:1002700001969C0189819A81AB81BC81A901BC0155
:10028000CD01B0D089819A8101960F900F900F9087
:100290000F90DF91CF910895CF93DF93CDB7DEB765
:1002A00029970FB6F894DEBF0FBECDBF9D838C8318
:1002B0007F836E83598748878C819D81882389F04D
:1002C0008C819D818150898389810E946D499B83A6
:1002D0008A832A813B818E819F81FC013183208327
:1002E00005C08E819F81FC01118210820000299639
:1002F0000FB6F894DEBF0FBECDBFDF91CF9108954A
:10030000CF93DF9300D01F92CDB7DEB79B838A8354
:100310008A819B81882379F019828A819B8181500F
:1003200089838981882F90E0A0E0B0E040E050E030
:10033000BC01CD0157D000000F900F900F90DF91BE
:10034000CF910895CF93DF93CDB7DEB729970FB63E
:10035000F894DEBF0FBECDBF6E837F8388879987F9
:100360001C821B821A8219821D828E819F81A88520
:10037000B985689412F8B695A795979587951694C0
:10038000D1F79C838B838E8187708D838B819C8139
:1003900088579C4FFC0140818D81282F30E081E0FF
:1003A00090E002C0880F991F2A95E2F78423882FD6
:1003B00090E09A83898389819A81892B31F08E819B
:1003C0009F8101969A83898302C01A82198289814A
:1003D0009A8129960FB6F894DEBF0FBECDBFDF918C
:1003E000CF910895CF93DF93CDB7DEB72A970FB69D
:1003F000F894DEBF0FBECDBF6D837E838F83988759
:100400005A8749871A8219821B821C828D819E819C
:10041000AF81B885689412F8B695A795979587959A
:100420001694D1F79A8389838D8187708B838B8112
:10043000282F30E081E090E002C0880F991F2A95B4
:10044000E2F78C8389859A85892B99F48C81809534
:100450008C8389819A8188579C4FFC0190818C8183
:10046000292F282389819A8188579C4FFC0120835A
:100470000FC089819A8188579C4FFC0190818C81A3
:10048000292F282B89819A8188579C4FFC01208332
:1004900000002A960FB6F894DEBF0FBECDBFDF91E5
:1004A000CF910895EF92FF920F931F93CF93DF9315
:1004B000CDB7DEB72C970FB6F894DEBF0FBECDBF19
:1004C00069837A838B839C832D833E834F835887F4
:1004D000E986FA860B871C87898161E00E94764A4B
:1004E00089819A8101969C0189819A81AB81BC8125
:1004F000A901BC01CD0102D120E030E0A90169854C
:100500007A858B859C850E94D1461816BCF4698536
:100510007A858B859C850E942D45DC01CB018C0161
:100520006D817E818F8198850E942D45DC01CB01F4
:100530009C0189819A81A801B90163D189819A813D
:1005400001962C960FB6F894DEBF0FBECDBFDF919B
:10055000CF911F910F91FF90EF900895CF93DF936C
:1005600000D0CDB7DEB79A83898300000F900F903B
:10057000DF91CF910895CF93DF9300D000D000D0CA
:100580001F92CDB7DEB79B838A834C835D836E83D6
:100590007F838A819B818823A9F18A819B818150F5
:1005A000898320E030E0A9016C817D818E819F816B
:1005B0000E948B448823D4F48C819D81AE81BF81BD
:1005C000B0588C839D83AE83BF836C817D818E8187
:1005D0009F810E942D459B01AC018981882F90E06D
:1005E000A0E0B0E0BC01CD01E9D00CC06C817D8100
:1005F0008E819F810E942845DC01CB01BC0189814D
:100600000E94BD49000027960FB6F894DEBF0FBECA
:10061000CDBFDF91CF910895CF93DF9300D01F928C
:10062000CDB7DEB79B838A838A819B81882379F04B
:1006300019828A819B81815089838981882F90E0EA
:10064000A0E0B0E040E050E0BC01CD0157D0000098
:100650000F900F900F90DF91CF910895CF93DF937C
:10066000CDB7DEB729970FB6F894DEBF0FBECDBF6A
:100670006E837F83888799871C821B821A821982E6
:100680001D828E819F81A885B985689412F8B695E0
:10069000A795979587951694D1F79C838B838E8128
:1006A00087708D838B819C818F569C4FFC0140818C
:1006B0008D81282F30E081E090E002C0880F991FE3
:1006C0002A95E2F78423882F90E09A838983898191
:1006D0009A81892B31F08E819F8101969A8389833B
:1006E00002C01A82198289819A8129960FB6F894DC
:1006F000DEBF0FBECDBFDF91CF910895CF93DF93C3
:10070000CDB7DEB72A970FB6F894DEBF0FBECDBFC8
:100710006D837E838F8398875A8749871A821982CF
:100720001B821C828D819E81AF81B885689412F8EE
:10073000B695A795979587951694D1F79A8389834F
:100740008D8187708B838B81282F30E081E090E052
:1007500002C0880F991F2A95E2F78C8389859A85B4
:10076000892B99F48C8180958C8389819A818F560D
:100770009C4FFC0190818C81292F282389819A81AB
:100780008F569C4FFC0120830FC089819A818F5620
:100790009C4FFC0190818C81292F282B89819A8183
:1007A0008F569C4FFC01208300002A960FB6F894C8
:1007B000DEBF0FBECDBFDF91CF910895CF93DF9302
:1007C000CDB7DEB728970FB6F894DEBF0FBECDBF0A
:1007D00069837A838B839C832D833E834F835887E1
:1007E0008D819E812981BC01822F0E94BD4900001C
:1007F00028960FB6F894DEBF0FBECDBFDF91CF9124
:100800000895CF93DF93CDB7DEB729970FB6F8944D
:10081000DEBF0FBECDBF9D838C837F836E835987E0
:1008200048878C819D8184539E4F9A8389838981D7
:100830009A81FC0184918B838B81882F90E0833097
:10084000910549F18430910534F48130910579F0B6
:100850000297B9F0A0C08730910509F470C08830C4
:10086000910509F482C0049709F43FC094C084E460
:1008700090E0FC01208184E490E02068FC0120836A
:100880008AC084E490E0FC01208184E490E020624E
:10089000FC01208380C080E890E0FC018081282F4B
:1008A0002C7F80E890E02260FC01208381E890E0CA
:1008B000FC018081982F907E8E81292F282B81E842
:1008C00090E02061FC01208386E890E0288539854E
:1008D000FC013183208380E890E0FC01208180E8E6
:1008E00090E02068FC01208356C080E890E0FC0185
:1008F0008081282F2C7F80E890E02260FC012083FB
:1009000081E890E0FC018081982F907E8E81292FD4
:10091000282B81E890E02061FC01208386E890E0AC
:1009200028853985FC013183208380E890E0FC0133
:10093000208180E890E02062FC0120832CC080EBC5
:1009400090E0FC01208180EB90E02068FC01208396
:1009500081EB90E0FC018081382F387F2E8181EB84
:1009600090E0232BFC01208316C080EB90E0FC017B
:10097000208180EB90E02062FC01208381EB90E0FD
:10098000FC018081382F387F2E8181EB90E0232B72
:10099000FC01208300008C8160E00E94A04B0000DD
:1009A00029960FB6F894DEBF0FBECDBFDF91CF9171
:1009B00008958F929F92AF92BF92CF92DF92EF9263
:1009C000FF920F931F93CF93DF93CDB7DEB7AA9714
:1009D0000FB6F894DEBF0FBECDBF9AA789A789A531
:1009E0009AA5FC0184AD95ADFC0180819181FC014B
:1009F00080819181A281B3818B839C83AD83BE83EF
:100A000089A59AA5FC0184859585A685B7858F83E0
:100A10009887A987BA8789A59AA5FC0180899189B9
:100A2000FC0180819181A281B3818B879C87AD87F6
:100A3000BE8789A59AA5805C9F4FFC01808191812A
:100A4000FC0180819181988B8F8789A59AA5FC01F3
:100A5000848195819A8B898B89899A89FC0180810F
:100A600091819C8B8B8B89899A89FC0182819381EE
:100A70009E8B8D8B89899A89FC0184819581988FC1
:100A80008F8B89899A89FC01868197819A8F898FBA
:100A900081E090E09C8F8B8F89A59AA5FC018281D3
:100AA0009381FC01118210828B8D9C8DAC01440FCF
:100AB000551F440F551F2F8538898B899C89B90193
:100AC0000E94075389A59AA5FC0182AD93AD2D899B
:100AD0003E89FC01318320830E94970F8091270378
:100AE00090912803A0912903B0912A032B853C857E
:100AF0004D855E85BC01CD010E944547DC01CB01DF
:100B00008D8F9E8FAF8FB8A31A82198247C08981BB
:100B10009A81880F991F880F991F2B893C89820F12
:100B2000931FFC01C080D180E280F38089819A818B
:100B3000880F991F880F991F2D893E89820F931F57
:100B4000FC0180819181A281B3812D8D3E8D4F8DDD
:100B500058A1BC01CD010E944547DC01CB01AC018D
:100B6000BD0189819A81880F991F880F991F2F8550
:100B700038898901080F191F9A01AB01C701B60115
:100B80000E942744DC01CB01F80180839183A2837A
:100B9000B38389819A8101969A83898329813A81D5
:100BA0008B8D9C8D281739070CF4B1CF80914B03A6
:100BB00090914C03A0914D03B0914E032B853C8541
:100BC0004D855E85BC01CD010E944547DC01CB010E
:100BD0006C017D0189A59AA5FC0184AD95ADFC0150
:100BE000008111812B813C814D815E81C701B6015D
:100BF0000E942744DC01CB01F80180839183A2830A
:100C0000B38389A59AA5FC0182AD93AD2F89388D58
:100C1000FC013183208330D20E94970F1A821982FF
:100C20002FC089819A810396880F991F880F991F79
:100C3000895D9C4FFC0180819181A281B3812B85CC
:100C40003C854D855E85BC01CD010E944547DC0198
:100C5000CB0129813A81220F331F220F331FAE01AE
:100C60004F5F5F4F240F351F245E3F4FF901808394
:100C70009183A283B38389819A8101969A83898320
:100C800089819A8102976CF21A8219826AC08981DD
:100C90009A81880F991F880F991F2B893C89820F91
:100CA000931FFC01C080D180E280F38089819A810A
:100CB000880F991F880F991F2D893E89820F931FD6
:100CC000FC0180819181A281B3812D8D3E8D4F8D5C
:100CD00058A1BC01CD010E944547DC01CB014C016C
:100CE0005D0189819A81880F991F880F991F2F892B
:100CF000388D820F931FFC0180819181A281B38185
:100D000029A13AA14BA15CA1BC01CD010E9445479C
:100D1000DC01CB019C01AD01C501B4010E94274457
:100D2000DC01CB01AC01BD0189819A81880F991F3B
:100D3000880F991F2F8538898901080F191F9A017B
:100D4000AB01C701B6010E942744DC01CB01F801C9
:100D500080839183A283B38389819A8101969A8348
:100D6000898329813A818B8D9C8D281739070CF452
:100D70008ECF80914F0390915003A0915103B09179
:100D800052032B853C854D855E85BC01CD010E94BB
:100D90004547DC01CB016C017D0189A59AA5FC01C9
:100DA00084AD95ADFC01008111812B813C814D8189
:100DB0005E81C701B6010E942744DC01CB01F80126
:100DC00080839183A283B38389A59AA5FC0182AD18
:100DD00093AD298D3A8DFC01318320834DD10E9442
:100DE000970F1A8219822FC089819A810696880FDF
:100DF000991F880F991F895D9C4FFC01808191810B
:100E0000A281B3812B853C854D855E85BC01CD01DA
:100E10000E944547DC01CB0129813A81220F331F13
:100E2000220F331FAE014F5F5F4F240F351F245E2B
:100E30003F4FF90180839183A283B38389819A8193
:100E400001969A83898389819A8103976CF21A8229
:100E500019828DC089819A81880F991F880F991FE7
:100E60002B893C89820F931FFC01C080D180E280D6
:100E7000F38089819A81880F991F880F991F2D8986
:100E80003E89820F931FFC0180819181A281B381F1
:100E90002D8D3E8D4F8D58A1BC01CD010E9445473F
:100EA000DC01CB014C015D0189819A81880F991F7A
:100EB000880F991F2F89388D820F931FFC01808125
:100EC0009181A281B38129A13AA14BA15CA1BC016E
:100ED000CD010E944547DC01CB019C01AD01C5015C
:100EE000B4010E942744DC01CB014C015D018981E2
:100EF0009A81880F991F880F991F298D3A8D820F2B
:100F0000931FFC0180819181A281B3812DA13EA11B
:100F10004FA158A5BC01CD010E944547DC01CB0182
:100F20009C01AD01C501B4010E942744DC01CB0145
:100F3000AC01BD0189819A81880F991F880F991F83
:100F40002F8538898901080F191F9A01AB01C70144
:100F5000B6010E942744DC01CB01F8018083918314
:100F6000A283B38389819A8101969A838983298197
:100F70003A818B8D9C8D281739070CF46BCF89A58E
:100F80009AA5FC0184AD95ADFC01208131818F8152
:100F90009885A985BA85F90180839183A283B3835B
:100FA00089A59AA5FC018281938121E030E0FC01B2
:100FB000318320830000AA960FB6F894DEBF0FBEDF
:100FC000CDBFDF91CF911F910F91FF90EF90DF90F8
:100FD000CF90BF90AF909F908F900895CF93DF9365
:100FE00000D0CDB7DEB79A83898389819A81FC01CD
:100FF00081819281A381B4810197A105B105B1F5E9
:1010000089819A81FC018581882381F189819A8176
:10101000FC0180859185A285B385BC01CD011EDBD5
:101020009C0189819A81FC013783268389819A8179
:10103000FC018681978140E050E060E070E89BDA37
:1010400089819A81FC0180859185A285B385BC0147
:10105000CD0104DB9C0189819A81FC0137832683C1
:1010600089819A81FC0186819781D6DA00000F90F0
:101070000F90DF91CF9108958F929F92AF92BF9280
:10108000CF92DF92EF92FF920F931F93CF93DF9354
:10109000CDB7DEB768970FB6F894DEBF0FBECDBFF1
:1010A0008AE993E08A529F4FFC01808191810197E8
:1010B00009F0A1C08AE993E082549F4FFC0180812E
:1010C0009181A281B3818F3F9F4FAF4FBF4FA9F551
:1010D0008AE993E08E539F4FFC0180819181A28128
:1010E000B3810196A11DB11DBC01CD010E945945DE
:1010F0007B018C018AE993E08A539F4FFC01808138
:101100009181A281B3819C01AD01C801B7010E9408
:101110004547DC01CB010AE913E020E030E040E87C
:101120005FE4BC01CD010E944547DC01CB01F80121
:10113000808B918BA28BB38B5EC08AE993E0825443
:101140009F4FFC0180819181A281B3810196A11DF5
:10115000B11DBC01CD010E9459457B018C018AE97A
:1011600093E08A539F4FFC0180819181A281B381DA
:101170009C01AD01C801B7010E944547DC01CB01CC
:101180006C017D018AE993E08E539F4FFC018081C1
:101190009181A281B381BC01CD010E9459454B01CF
:1011A0005C018AE993E08A539F4FFC018081918121
:1011B000A281B3819C01AD01C501B4010E944547E4
:1011C000DC01CB0120E030E040E85FE4BC01CD0170
:1011D0000E944547DC01CB010AE913E09C01AD0107
:1011E000C701B6010E942744DC01CB01F801808BC6
:1011F000918BA28BB38B8AE993E08A529F4FFC01BB
:1012000080819181892BD9F48AE993E0805C9F4F9A
:10121000FC0180819181FC01808191812AE933E088
:1012200027523F4FF90120813181FC01808191815A
:10123000A281B381F90180839183A283B3838091DA
:10124000300690913106A0913206B091330620917C
:10125000AA013091AB014091AC015091AD01BC01AC
:10126000CD010E948B44882381F08091AA01909146
:10127000AB01A091AC01B091AD0180933006909389
:101280003106A0933206B093330688E296E09A873F
:10129000898762E170E080E090E054D89C01898504
:1012A0009A85FC013783268380912E0690912F0624
:1012B0009E01295E3F4F43E050E0B9010E944C017E
:1012C0008091240690912506A0912606B0912706CC
:1012D0002091AE013091AF014091B0015091B10128
:1012E000BC01CD010E948B44882381F08091AE0126
:1012F0009091AF01A091B001B091B101809324060B
:1013000090932506A0932606B09327068CE196E0DD
:101310009A87898763E170E080E090E013D89C01B0
:1013200089859A85FC0137832683809122069091D6
:1013300023069E012B5E3F4F43E050E0B9010E941F
:101340004C018091F4019091F5019C0140E050E046
:101350008D899E89CC01A0E0B0E0BC01CD010E9446
:101360007451DC01CB01BC01CD010E945945DC0167
:10137000CB0120E030E040E054E3BC01CD010E940D
:101380004547DC01CB017C018D018091DA01909110
:10139000DB01A091DC01B091DD019C01AD01C80130
:1013A000B7010E942644DC01CB017C018D018091B4
:1013B000DE019091DF01A091E001B091E1019C017B
:1013C000AD01C801B7010E944547DC01CB0189830B
:1013D0009A83AB83BC838091E2019091E301A09159
:1013E000E401B091E5019C01AD0169817A818B81B5
:1013F0009C810E94D14618166CF48091E201909174
:10140000E301A091E401B091E50189839A83AB8364
:10141000BC831EC08091E6019091E701A091E80194
:10142000B091E9019C01AD0169817A818B819C8138
:101430000E948B44882364F48091E6019091E70137
:10144000A091E801B091E90189839A83AB83BC83C1
:101450008AE993E087529F4FFC0180819181FC01D2
:1014600080819181A281B3818D839E83AF83B88770
:101470008091400690914106A0914206B0914306AA
:1014800020915706309158064091590650915A06BE
:10149000BC01CD010E948B44882391F080914006CD
:1014A00090914106A0914206B09143069C01AD0186
:1014B0006D817E818F8198850E948B448823E9F419
:1014C0008D819E81AF81B8858093400690934106BF
:1014D000A0934206B09343068091EA019091EB01FC
:1014E000A091EC01B091ED0180931006909311064C
:1014F000A0931206B09313060CC089819A81AB8128
:10150000BC818093100690931106A0931206B093AD
:1015100013068091C2019091C301A091C401B091C2
:10152000C50125E237E745E859E1BC01CD010E943C
:101530004547DC01CB016C017D018091B6019091A2
:10154000B701A091B801B091B90120E030E848E8B6
:1015500053E4BC01CD010E942744DC01CB019C0176
:10156000AD01C701B6010E944547DC01CB017C01FA
:101570008D018091CE019091CF01A091D001B091C9
:10158000D1019C01AD01C801B7010E944547DC01B2
:10159000CB0128E035EE4CE350E2BC01CD010E94C6
:1015A0008F44DC01CB018D839E83AF83B88780910C
:1015B000D2019091D301A091D401B091D50120E046
:1015C00030E048EC52E4BC01CD010E948F44DC01C4
:1015D000CB017C018D018091BA019091BB01A0915A
:1015E000BC01B091BD019C01AD01C801B7010E94D1
:1015F0004547DC01CB016C017D018091B6019091E2
:10160000B701A091B801B091B90120E030E048ECF9
:1016100051E4BC01CD010E942644DC01CB019C01B8
:10162000AD01C701B6010E944547DC01CB017C0139
:101630008D018091BA019091BB01A091BC01B09144
:10164000BD019C01AD01C801B7010E942744DC0126
:10165000CB018B879C87AD87BE87809110069091C8
:101660001106A0911206B09113062091C601309187
:10167000C7014091C8015091C901BC01CD010E9430
:101680004547DC01CB016C017D018091F201909115
:10169000F3019C0140E050E08F89988DCC01A0E0DF
:1016A000B0E0BC01CD010E947451DC01CB01BC0152
:1016B000CD010E945945DC01CB0120E030E040E043
:1016C00055E3BC01CD010E944547DC01CB019C01E3
:1016D000AD01C701B6010E942744DC01CB018F8711
:1016E000988BA98BBA8B8091B2019091B301A09194
:1016F000B401B091B50120E030E04AE754E4BC0108
:10170000CD010E948F44DC01CB012B853C854D85AA
:101710005E85BC01CD010E944547DC01CB016C0117
:101720007D018091D6019091D701A091D801B0910F
:10173000D90120E030E048EC52E4BC01CD010E9428
:101740008F44DC01CB014C015D018091BE01909181
:10175000BF01A091C001B091C1019C01AD01C501C3
:10176000B4010E944547DC01CB014C015D01809131
:10177000B6019091B701A091B801B091B90120E0F4
:1017800030E048EC51E4BC01CD010E942644DC016C
:10179000CB019C01AD01C501B4010E944547DC01AC
:1017A000CB014C015D018091BE019091BF01A091E0
:1017B000C001B091C1019C01AD01C501B4010E94FD
:1017C0002744DC01CB012D813E814F815885BC012E
:1017D000CD010E948F44DC01CB01BC01CD010E94F0
:1017E000FC44DC01CB0120E030E040E85FE3BC01D9
:1017F000CD010E942644DC01CB019C01AD016B852B
:101800007C858D859E850E948F44DC01CB014C0137
:101810005D012D813E814F8158856F857889898949
:101820009A890E948F44DC01CB01BC01CD010E944A
:10183000FC44DC01CB0120E030E040E85FE3BC0188
:10184000CD010E942644DC01CB019C01AD01C50104
:10185000B4010E944547DC01CB019C01AD01C701E9
:10186000B6010E942644DC01CB016C017D01809110
:10187000CA019091CB01A091CC01B091CD019C0106
:10188000AD016F85788989899A890E948F44DC012E
:10189000CB019C01AD01C701B6010E942644DC01C9
:1018A000CB0129813A814B815C81BC01CD010E9431
:1018B0002644DC01CB0189839A83AB83BC8384E318
:1018C00096E09C8B8B8B8091A2019091A301A091BB
:1018D000A401B091A50129813A814B815C81BC01B1
:1018E000CD010E944547DC01CB017C018D01809137
:1018F000180690911906A0911A06B0911B069C013A
:10190000AD01C801B7010E942744DC01CB018D83E2
:101910009E83AF83B8878091A6019091A701A09183
:10192000A801B091A9019C01AD016D817E818F81DB
:1019300098850E94D14618166CF48091A60190916A
:10194000A701A091A801B091A9018D839E83AF83C7
:10195000B8871EC080919E0190919F01A091A00127
:10196000B091A1019C01AD016D817E818F8198852F
:101970000E948B44882364F480919E0190919F0182
:10198000A091A001B091A1018D839E83AF83B88700
:101990008091EE019091EF01A091F001B091F101E1
:1019A0002D813E814F815885BC01CD010E94454764
:1019B000DC01CB01BC01CD010E949645DC01CB01CD
:1019C0008D839E83AF83B8878D819E81AF81B885DB
:1019D000BC01CD010E948115882351F48D819E8127
:1019E000AF81B885BC01CD010E944915882329F03B
:1019F0001D821E821F82188612C08D819E81AF813A
:101A0000B88520E030E040E857E4BC01CD010E94F9
:101A1000B045DC01CB018D839E83AF83B88720E086
:101A200030E0A9016D817E818F8198850E948B4471
:101A30008823CCF48D819E81AF81B885B058BC01DC
:101A4000CD010E942D45DC01CB0191958195910935
:101A5000092E000CAA0BBB0BBC01CD010E945B45FB
:101A6000DC01CB0112C06D817E818F8198850E943F
:101A70002D45DC01CB01092E000CAA0BBB0BBC01D0
:101A8000CD010E945B45DC01CB018D839E83AF833A
:101A9000B88711E020E030E04FE753E46D817E81AC
:101AA0008F8198850E948B4488230CF010E081E0A0
:101AB0008127882341F080E090E0AFE7B3E48D8395
:101AC0009E83AF83B88780913C0690913D06A0919C
:101AD0003E06B0913F06BC01CD010E942E039C0141
:101AE0008B899C89FC013783268311E020E030E05C
:101AF000A9016D817E818F8198850E94D14618163B
:101B00000CF010E081E08127882321F01D821E82E5
:101B10001F82188620E030E04FE753E46D817E811C
:101B20008F8198850E944547DC01CB0120E030E0A1
:101B30004FE753E4BC01CD010E948F44DC01CB018F
:101B4000B05820913A0630913B06AC01BD01C90165
:101B50000E94BB028091960190919701A0919801FB
:101B6000B091990129813A814B815C81BC01CD0101
:101B70000E944547DC01CB01809314069093150623
:101B8000A0931606B09317068AE993E08A529F4FF6
:101B9000FC0180819181019709F060C082E090E0B2
:101BA0000E94DC2B8AE993E087529F4FFC018081E1
:101BB0009181FC0180819181A281B381AC01BD0141
:101BC00080E090E00E94B02B8AE993E08A529F4F18
:101BD000FC0180819181019709F040C08AE993E07E
:101BE00086539F4FFC0180819181A281B381BC010A
:101BF000CD010E9459456B017C018AE993E0825333
:101C00009F4FFC0180819181A281B381BC01CD01F4
:101C10000E945945DC01CB0120E030E040E85FE460
:101C2000BC01CD010E944547DC01CB019C01AD0107
:101C3000C701B6010E942744DC01CB012DEC3CEC2E
:101C40004CE45EE3BC01CD010E944547DC01CB01C1
:101C5000AC01BD0181E090E00E94B02B8AE993E0E5
:101C60008A529F4FFC0180819181019709F04BC1FD
:101C70008AE993E08E529F4FFC0180819181A2817D
:101C8000B38120E030E040E85FEBBC01CD010E9471
:101C90008B44882309F4A6C08AE993E08E529F4FB3
:101CA000FC01C080D180E280F3808AE993E0865312
:101CB0009F4FFC0180819181A281B381BC01CD0144
:101CC0000E9459454B015C018AE993E082539F4F82
:101CD000FC0180819181A281B381BC01CD010E9470
:101CE0005945DC01CB0120E030E040E85FE4BC0175
:101CF000CD010E944547DC01CB019C01AD01C5012E
:101D0000B4010E942744DC01CB012DEC3CEC4CE4F7
:101D10005EE3BC01CD010E944547DC01CB019C0183
:101D2000AD01C701B6010E942644DC01CB016C0164
:101D30007D018AE993E086539F4FFC018081918168
:101D4000A281B381BC01CD010E9459454B015C01C8
:101D50008AE993E082539F4FFC0180819181A281A7
:101D6000B381BC01CD010E945945DC01CB0120E0CB
:101D700030E040E85FE4BC01CD010E944547DC0152
:101D8000CB019C01AD01C501B4010E942744DC01D7
:101D9000CB012DEC3CEC4CE45EE3BC01CD010E9498
:101DA0004547DC01CB0120E030E040E054E3BC01DA
:101DB000CD010E944547DC01CB0111E09C01AD0142
:101DC000C701B6010E94D14618160CF010E081E060
:101DD0008127882339F08AE993E022EC32E0FC0184
:101DE000318320838AE993E088529F4FFC018081F0
:101DF000882339F08AE993E022EC32E0FC01318358
:101E000020838AE993E004960E94D9042AE933E00A
:101E1000C90182549F4FFC0180819181A281B381CD
:101E20000196A11DB11DA90142545F4FFA018083A3
:101E30009183A283B383C90182549F4FFC018081A7
:101E40009181A281B381892B8A2B8B2BA1F42AE962
:101E500033E0C9018E539F4FFC0180819181A281A3
:101E6000B3810196A11DB11D2E533F4FF90180830F
:101E70009183A283B3838AE993E02AE933E027526E
:101E80003F4FF90120813181FC0180899189A2892C
:101E9000B389F90180839183A283B3832AE933E074
:101EA000C90186539F4FFC0180819181A281B3813A
:101EB0000196A11DB11D26533F4FF90180839183E7
:101EC000A283B3838AE993E086539F4FFC0180810C
:101ED0009181A281B381892B8A2B8B2BA1F42AE9D2
:101EE00033E0C90182539F4FFC0180819181A2811F
:101EF000B3810196A11DB11D22533F4FF90180838B
:101F00009183A283B383000068960FB6F894DEBF76
:101F10000FBECDBFDF91CF911F910F91FF90EF903A
:101F2000DF90CF90BF90AF909F908F900895CF9308
:101F3000DF9300D0CDB7DEB78AE993E089579F4F92
:101F4000FC01808191819A8389838091140690910C
:101F50001506A0911606B091170629813A81F9015C
:101F600080839183A283B38300000F900F90DF9151
:101F7000CF910895EF92FF920F931F93CF93DF932A
:101F800000D000D0CDB7DEB784E090E033D58AE949
:101F900093E043EE50E060E070E00E9410532AE9C5
:101FA00033E08AE993E02A523F4FFC0137832683CE
:101FB0002AE933E08AE993E027523F4F805C9F4F44
:101FC000FC01318320832AE933E08AE993E02A5334
:101FD0003F4FFC01358B248B2AE933E08AE993E0FB
:101FE00029573F4FFC0137AF26AF2AE933E08AE992
:101FF00093E02F573F4F8C5B9F4FFC013183208331
:102000002AE933E08AE993E02A543F4F8E5B9F4FE1
:10201000FC01318320832AE933E08AE993E02854E4
:102020003F4F8A5B9F4FFC01318320832AE933E0D5
:102030008AE993E02D573F4F885B9F4FFC01318326
:1020400020832AE933E08AE993E02B573F4F865BF0
:102050009F4FFC01318320832AE933E08AE993E032
:1020600086599F4FFC01318320838AE993E02AE956
:1020700033E0FC01358324838AE993E0FC01868107
:10208000978121E030E0FC01318320832AE933E0AD
:102090008AE993E022573F4F82569F4FFC013183DC
:1020A00020832AE933E08AE993E02E563F4F805699
:1020B0009F4FFC01318320832AE933E08AE993E0D2
:1020C0002A563F4F8E559F4FFC01318320832AE9CA
:1020D00033E08AE993E026563F4F8C559F4FFC0131
:1020E000318320838AE993E08F579F4F28E136E0C0
:1020F000FC01318320832AE933E08AE993E0225608
:102100003F4FFC01318720878AE993E026ED32E0DA
:10211000FC01338722872AE933E08AE993E02552DC
:102120003F4F87529F4FFC01318320838AE993E020
:102130009C012E523F4F80E090E0A0E8BFEBF901F8
:1021400080839183A283B3838AE993E09C012A531D
:102150003F4F8DEC9CECACE4BEE3F90180839183AE
:10216000A283B3838AE993E09C012A553F4F86EC12
:102170009EE7AEE4B7ECF90180839183A283B38339
:102180008AE993E09C0126553F4F8CEC9FEBA8E336
:10219000B6E5F90180839183A283B3838AE993E052
:1021A0009C0122553F4F8FE390E0A0E1BEE5F9018D
:1021B00080839183A283B3838AE993E09C012E54A8
:1021C0003F4F8DE59BE4A1E4B9EEF9018083918353
:1021D000A283B3838AE993E02DE734E0FC013383E3
:1021E000228389E894E090937E0480937D0487E5C0
:1021F00093E090938A048093890487E593E0909319
:102200008C0480938B0487E593E090938E048093F5
:102210008D0487E593E09093900480938F0487E585
:1022200093E090939204809391042AE933E08AE941
:1022300093E0FC018281938124543F4FFC0135835C
:1022400024832AE933E08AE993E0FC0182819381C7
:102250002A553F4FFC01338322832AE933E08AE980
:1022600093E0FC018281938127523F4FF901208145
:102270003181FC013783268348E050E060E070E064
:1022800080E196E00E94105344E050E060E070E08E
:1022900088E196E00E9410534BE250E060E070E06D
:1022A0008CE196E00E94105344E150E060E070E061
:1022B00083E994E00E9410538AE993E084549F4F8D
:1022C00023E934E0FC013183208384E190E09093A2
:1022D00094048093930486E091E090939604809315
:1022E00095048EE291E090939804809397048EE792
:1022F00091E090939A048093990482E991E09093FD
:102300009C0480939B0481E0809328061092290608
:1023100010922A0610922B0610922C0680E090E074
:10232000A0E8BFEB8093300690933106A09332066D
:10233000B09333061092280681E080934606809180
:10234000AA019091AB01A091AC01B091AD01809335
:10235000300690933106A0933206B093330688E29C
:1023600096E09A83898310922D0681E090E0A0E0A8
:10237000B0E08093290690932A06A0932B06B09391
:102380002C0662E170E080E090E00E941A019C015E
:1023900089819A81FC013783268381E080932D0611
:1023A00081E080931C0610921D0610921E0610926A
:1023B0001F061092200680E090E0A0E8BFEB80931B
:1023C000240690932506A0932606B0932706109224
:1023D0001C0681E0809345068091AE019091AF018B
:1023E000A091B001B091B10180932406909325068D
:1023F000A0932606B09327068CE196E09A83898302
:102400001092210681E090E0A0E0B0E080931D06EC
:1024100090931E06A0931F06B093200663E170E020
:1024200080E090E00E941A019C0189819A81FC0160
:102430003783268381E0809321068091EA01909181
:10244000EB01A091EC01B091ED0180931006909307
:102450001106A0931206B09313068091570690912F
:102460005806A0915906B0915A0680934006909361
:102470004106A0934206B093430681E08093340660
:1024800010923506109236061092370610923806D2
:102490001092340681E0809344068BE090E0A0E047
:1024A000B0E080933C0690933D06A0933E06B09327
:1024B0003F0684E396E09C838B831092390681E08B
:1024C00090E0A0E0B0E08093350690933606A093AC
:1024D0003706B093380680913C0690913D06A09156
:1024E0003E06B0913F06E12CF12C0FE713E420E00B
:1024F00030E040E050E4BC01CD010E9452029C015A
:102500008B819C81FC013783268380913C069091CE
:102510003D06A0913E06B0913F06BC01CD010E9450
:102520002E039C018B819C81FC0137832683809143
:102530003A0690913B060E94AE0281E080933906F4
:1025400080919A0190919B01A0919C01B0919D0175
:102550008093180690931906A0931A06B0931B0651
:1025600000000F900F900F900F90DF91CF911F916F
:102570000F91FF90EF900895CF93DF9300D0CDB7E8
:10258000DEB788E296E09A838983809128068823C3
:1025900031F581E0809328068091290690912A06E2
:1025A000A0912B06B0912C060197A105B105B9F4B5
:1025B00080912D06882399F062E170E080E090E040
:1025C0000E94A2019C0189819A81FC0137832683A4
:1025D00089819A81FC01868197810E9480018CE12A
:1025E00096E09A83898380911C06882331F581E0E7
:1025F00080931C0680911D0690911E06A0911F06D7
:10260000B09120060197A105B105B9F4809121068A
:10261000882399F063E170E080E090E00E94A201DD
:102620009C0189819A81FC013783268389819A8163
:10263000FC01868197810E94800180913406882365
:1026400039F481E08093340684E396E00E94EE073B
:1026500000000F900F90DF91CF910895CF93DF93FB
:10266000CDB7DEB76A970FB6F894DEBF0FBECDBF09
:1026700080E290E09E838D8319821A821B821C82E5
:102680008D819E81809741F458D0DC01CB018983F4
:102690009A83AB83BC8342C081E090E09A878987AC
:1026A000CE010996FC01908181E0913009F480E02F
:1026B000882F90E098878F838F819885009719F0F5
:1026C0000197B9F02BC080E090E0A0EFBFE78F87C3
:1026D000988BA98BBA8B1B861C861D861E868B85C4
:1026E0009C85AD85BE8589839A83AB83BC830000BE
:1026F00015C080E090E0A0EFBFE78B8B9C8BAD8B8B
:10270000BE8B1F8A188E198E1A8E8B899C89AD8973
:10271000BE8989839A83AB83BC83000089819A81B7
:10272000AB81BC81BC01CD016A960FB6F894DEBFC7
:102730000FBECDBFDF91CF910895CF93DF9300D02F
:1027400000D0CDB7DEB780E090E0A0E8BFE7898396
:102750009A83AB83BC8389819A81AB81BC81BC01A4
:10276000CD010F900F900F900F90DF91CF910895B2
:10277000CF93DF93CDB7DEB76A970FB6F894DEBF7D
:102780000FBECDBF80E290E09E838D8319821A82B6
:102790001B821C828D819E81809741F458D0DC0180
:1027A000CB0189839A83AB83BC8342C081E090E0F4
:1027B0009A878987CE010996FC01908181E091304A
:1027C00009F480E0882F90E098878F838F81988527
:1027D000009719F00197B9F02BC080E090E0A0EFCE
:1027E000BFEF8F87988BA98BBA8B1B861C861D86A3
:1027F0001E868B859C85AD85BE8589839A83AB8338
:10280000BC83000015C080E090E0A0EFBFEF8B8B91
:102810009C8BAD8BBE8B1F8A188E198E1A8E8B895E
:102820009C89AD89BE8989839A83AB83BC83000070
:1028300089819A81AB81BC81BC01CD016A960FB6BA
:10284000F894DEBF0FBECDBFDF91CF910895CF9337
:10285000DF9300D000D0CDB7DEB780E090E0A0E8F5
:10286000BFEF89839A83AB83BC8389819A81AB81D3
:10287000BC81BC01CD010F900F900F900F90DF91A4
:10288000CF910895CF93DF93CDB7DEB76A970FB698
:10289000F894DEBF0FBECDBF80E290E09E838D83B3
:1028A00019821A821B821C828D819E81809741F43D
:1028B0005BD0DC01CB0189839A83AB83BC8345C0A9
:1028C00081E090E09A878987CE010996FC0190818A
:1028D00081E0913009F480E0882F90E098878F8321
:1028E0008F819885009719F00197B9F02EC080E08C
:1028F00090E0A8EFBFEF8F87988BA98BBA8B1B86D0
:102900001C861D861E868B859C85AD85BE8589832C
:102910009A83AB83BC83000018C08FEF9FEFAFEFAB
:10292000BFE78B8B9C8BAD8BBE8B8FEF9FEFDC015A
:102930008F8B988FA98FBA8F8B899C89AD89BE891F
:1029400089839A83AB83BC83000089819A81AB81A0
:10295000BC81BC01CD016A960FB6F894DEBF0FBEF4
:10296000CDBFDF91CF910895CF93DF93CDB7DEB781
:1029700028970FB6F894DEBF0FBECDBF1B821C8216
:102980001D821E8281E090E098878F83CE0107969A
:10299000FC01908181E0913009F480E0882F90E083
:1029A0009A83898389819A81009719F0019751F060
:1029B00012C080E090E0A0ECBFEF8B839C83AD83DE
:1029C000BE8309C08FEF9FEFAFEFBFE78B839C8380
:1029D000AD83BE8300008B819C81AD81BE81BC0133
:1029E000CD0128960FB6F894DEBF0FBECDBFDF91A4
:1029F000CF910895CF93DF9300D0CDB7DEB79A8300
:102A0000898340DFDC01CB01809353069093540609
:102A1000A0935506B0935606A7DFDC01CB01809347
:102A2000470690934806A0934906B0934A0616DEDF
:102A3000DC01CB0180934F0690935006A093510682
:102A4000B09352067ADEDC01CB0180934B06909363
:102A50004C06A0934D06B0934E068ADEDC01CB01F6
:102A60008093570690935806A0935906B0935A0640
:102A7000EEDEDC01CB0180935B0690935C06A093B5
:102A80005D06B0935E0600000F900F90DF91CF912E
:102A90000895CF93DF9300D000D0CDB7DEB7698320
:102AA0007A838B839C8380914F0690915006A091EE
:102AB0005106B09152069C01AD0169817A818B81EA
:102AC0009C810E948B44882391F0809157069091BD
:102AD0005806A0915906B0915A069C01AD01698132
:102AE0007A818B819C810E948B44882311F481E040
:102AF00001C080E00F900F900F900F90DF91CF9169
:102B00000895CF93DF93CDB7DEB72F970FB6F89424
:102B1000DEBF0FBECDBF6C877D878E879F871982F2
:102B200080E290E09B838A838A819B81809749F42D
:102B30008C859D85AE85BF85BC01CD0138D089834C
:102B40002CC08C859D85AE85BF858C839D83AE838F
:102B5000BF8388859985AA85BB8588279927A07F0B
:102B6000BF770097A04FBF47A9F488859985AA85AC
:102B7000BB85AF70BB27892B8A2B8B2B41F48C81B3
:102B80009D81AE81BF81892B8A2B8B2B19F081E02F
:102B900090E002C080E090E0898389812F960FB693
:102BA000F894DEBF0FBECDBFDF91CF910895CF93D4
:102BB000DF93CDB7DEB728970FB6F894DEBF0FBE10
:102BC000CDBF6D837E838F8398878D819E81AF81FA
:102BD000B88589839A83AB83BC8389819A81AB81D1
:102BE000BC8188279927A078BF770097A048BF4766
:102BF00069F489819A81AB81BC81AF77BB27892B2E
:102C00008A2B8B2B19F081E090E002C080E090E0ED
:102C100028960FB6F894DEBF0FBECDBFDF91CF91DF
:102C20000895CF93DF93CDB7DEB7E6970FB6F8944C
:102C3000DEBF0FBECDBF9CAB8BAB7EAB6DAB8DA9AA
:102C40009EA99C838B831E821D8281E090E09887E1
:102C50008F8382E090E09A87898783E090E09C8769
:102C60008B8780E190E09E878D878BA99CA9FC01D2
:102C700084819581FC0180819181988B8F878F85DC
:102C80009889FC01808591859A8B898B8F8598899D
:102C9000FC01828193819C8B8B8B8B819C81FC01BD
:102CA00080819181A281B3818F8F98A3A9A3BAA3B8
:102CB0008B819C8104969C838B831A821982D7C056
:102CC0004D855E852B813C81CE018396B9010E94A2
:102CD00007538D859E852B813C81820F931F9C839A
:102CE0008B8389899A89FC01228133818D819E8120
:102CF000880F991F880F991FAE014F5F5F4F840F98
:102D0000951F8296FC0180819181A281B381880FF9
:102D1000991F880F991F880F991F820F931FFC011D
:102D2000808191819E8B8D8B89899A89FC0122817A
:102D300033818D819E81880F991F880F991FAE0165
:102D40004F5F5F4F840F951F8296FC0180819181B8
:102D5000A281B381880F991F880F991F880F991F2F
:102D6000820F931FFC0184819581988F8F8B8B85B7
:102D70009C85880F991F880F991F9E012F5F3F4FD9
:102D8000820F931F8296FC0180819181A281B38181
:102D9000880F991F2B893C89820F931FFC0140816A
:102DA00051818F89988D892B19F082E090E002C0C3
:102DB00081E090E0849F9001859F300D949F300DBD
:102DC00011243A8F298F89859A85880F991F880F3A
:102DD000991F9E012F5F3F4F820F931F8296FC0128
:102DE00080819181A281B381AC01298D3A8D429F6E
:102DF000C001439F900D529F900D11249C8F8B8F8B
:102E00008F819885880F991F880F991F9E012F5FCA
:102E10003F4F820F931F8296FC0180819181A28196
:102E2000B381AC01298D3A8D429FC001439F900D23
:102E3000529F900D11242D893E89820F931F9E8FE2
:102E40008D8F4B8D5C8D2B813C818D8D9E8DB9013D
:102E50000E9407538B8D9C8D2B813C81820F931F89
:102E60009C838B8389819A8101969A838983898146
:102E70009A819C01990F440B550B8F8D98A1A9A1A4
:102E8000BAA1281739074A075B070CF419CF0000CD
:102E9000E6960FB6F894DEBF0FBECDBFDF91CF919F
:102EA0000895CF93DF93CDB7DEB76E970FB6F89442
:102EB000DEBF0FBECDBF9A8F898F7C8F6B8F5E8FE9
:102EC0004D8F898D9A8DFC0184819581FC018081D3
:102ED00091819A83898389819A81FC018681978176
:102EE0009C838B8389819A81FC01828193819E835B
:102EF0008D8318861F8281E090E09A87898782E01F
:102F000090E09C878B8783E090E09E878D878B8104
:102F10009C81FC01228133818F819885880F991FC4
:102F2000880F991F4B8D5C8D840F951FFC0180814C
:102F30009181A281B381880F991F880F991F880FF3
:102F4000991F820F931FFC0180819181988B8F873D
:102F50008B819C81FC01228133818F819885880F30
:102F6000991F880F991F4B8D5C8D840F951FFC0155
:102F700080819181A281B381880F991F880F991F49
:102F8000880F991F820F931FFC01848195819A8B72
:102F9000898B8D859E85880F991F880F991F2B8D92
:102FA0003C8D820F931FFC0180819181A281B381AE
:102FB000880F991F2D813E81820F931FFC01408154
:102FC000518189899A89892B19F082E090E002C0A9
:102FD00081E090E0849F9001859F300D949F300D9B
:102FE00011243C8B2B8B8B859C85880F991F880F18
:102FF000991F2B8D3C8D820F931FFC018081918145
:10300000A281B381AC012B893C89429FC001439FBF
:10301000900D529F900D11249E8B8D8B89859A85E2
:10302000880F991F880F991F2B8D3C8D820F931F3E
:10303000FC0180819181A281B381AC012B893C8903
:10304000429FC001439F900D529F900D1124988F75
:103050008F8B8F89988D2F853889280F391F8D8DFB
:103060009E8DFC01318320838D8D9E8D2D893E891F
:10307000FC013383228300006E960FB6F894DEBF06
:103080000FBECDBFDF91CF9108950F931F93CF93C4
:10309000DF93CDB7DEB7E1970FB6F894DEBF0FBE72
:1030A000CDBF9BA78AA77DA76CA75FA74EA739AB0B
:1030B00028AB88A999A9FC01808191819C838B838D
:1030C0001D828B819C81FC0180819181A281B381D1
:1030D0008A8B9B8BAC8BBD8B8B819C8104969C8354
:1030E0008B838AA59BA5FC01208131818A899B89DC
:1030F000AC89BD89880F991F820F931FFC01208125
:1031000031818EA59FA5FC01318320838B819C8119
:10311000FC0180819181A281B3818E879F87A88BDA
:10312000B98B8B819C8104969C838B838CA59DA5F8
:1031300062E070E00E94C4519C018EA59FA5FC0135
:10314000338322838EA59FA5FC0182819381892BE5
:1031500019F481E08D83F6C01A821982E2C08B8156
:103160009C81FC0180819181A281B3818E8B9F8B98
:10317000A88FB98F8B819C8104969C838B838EA5AD
:103180009FA5FC01228133818E899F89A88DB98DED
:10319000880F991F8901080F191F68E070E081E00E
:1031A00090E00E94C451F801918380838EA59FA571
:1031B000FC01228133818E899F89A88DB98D880F6A
:1031C000991F820F931FFC0180819181892B19F433
:1031D00081E08D83B7C08EA59FA5FC01228133813C
:1031E0008E899F89A88DB98D880F991F820F931F93
:1031F000FC01808191819B878A878A859B852B81B1
:103200003C8144E050E0B9010E9407538B819C81CE
:1032100004969C838B838A859B85FC0180819181A8
:10322000A281B381181619061A061B06E4F48A85D2
:103230009B85FC0180819181A281B38164E070E073
:103240000E94C4519C018A859B85FC01358324839F
:103250008A859B85FC0184819581892B21F481E0FD
:103260008D8300006FC01E821F821886198643C09E
:103270008A859B85FC01248135818E819F81880F01
:10328000991F880F991F820F931F9D878C878B81B1
:103290009C8120E1FC01DE015A9601900D922A9555
:1032A000E1F78B819C8140969C838B834C855D8567
:1032B0009E01265E3F4F8AA59BA5B901F2DD8A8556
:1032C0009B85FC01268137818C859D85FC0182814F
:1032D0009381280F391F8A859B85FC0137832683BC
:1032E0008E819F81A885B9850196A11DB11D8E8310
:1032F0009F83A887B9878A859B85FC0180819181FE
:10330000A281B3812E813F814885598528173907CD
:103310004A075B070CF4ACCF89819A8101969A83A6
:10332000898389819A819C01990F440B550B8E8565
:103330009F85A889B989281739074A075B070CF4C4
:103340000ECF000088A999A92B813C81FC01318313
:1033500020838D81E1960FB6F894DEBF0FBECDBFFE
:10336000DF91CF911F910F910895CF93DF9300D0FC
:1033700000D000D01F92CDB7DEB79B838A834C83E9
:103380005D836E837F8319828C819D81AE81BF8135
:10339000BB231CF481E0898349C08A819B8121E0A1
:1033A00030E0FC01318320838C819D81AE81BF811F
:1033B000181619061A061B06A4F48C819D810E941A
:1033C000DE519C018A819B81FC01358324838A81A3
:1033D0009B81FC0184819581892B41F481E0898363
:1033E00025C08A819B81FC01158214822C813D813C
:1033F0008A819B81FC01338322838A819B81FC012A
:10340000248135818A819B81FC01378326838A81CF
:103410009B81FC01248135818A819B81FC0131875C
:1034200020878A819B81FC011386128689812796D9
:103430000FB6F894DEBF0FBECDBFDF91CF910895D8
:10344000CF93DF93CDB7DEB72A970FB6F894DEBFE0
:103450000FBECDBF6F83788789879A872F81388584
:1034600044E4429FC001439F900D112488559B4F17
:103470009A83898389819A8142969C838B838B81ED
:103480009C814C969E838D838D819E81FC018481DD
:103490009581892B61F08D819E81FC0184819581CC
:1034A0000E947A528D819E81FC01158214828B814B
:1034B0009C81FC0184A195A1892B61F08B819C8169
:1034C000FC0184A195A10E947A528B819C81FC0110
:1034D00015A214A28B819C81FC01118210828B8128
:1034E0009C81FC0114821582168217828B819C813B
:1034F000FC0110861186128613868B819C81FC014B
:1035000014861586168617868B819C8121E030E013
:10351000FC01318B208B8B819C81FC01138A128AE8
:103520008B819C81FC01148A158A168A178A8B81EB
:103530009C81FC01118E108E8B819C81FC01138E6D
:10354000128E8B819C81FC01148E158E168E178E27
:103550008B819C81FC0111A210A28B819C81FC01BA
:1035600013A212A28B819C81FC0115A214A28B8153
:103570009C81FC0117A216A28B819C81FC0110A6E4
:1035800011A612A613A68B819C81FC0114A615A678
:1035900016A617A68B819C81FC0111AA10AA000017
:1035A0002A960FB6F894DEBF0FBECDBFDF91CF9144
:1035B0000895CF93DF9300D000D000D0CDB7DEB711
:1035C0006B837C838D839E832B813C8144E4429F6B
:1035D000C001439F900D112488559B4F9A83898386
:1035E0008B819C818A509E4FFC018081882371F0E1
:1035F00089819A8144E450E060E070E00E941053B9
:103600008B819C818A509E4FFC01108289819A8116
:10361000FC01148215821682178289819A81FC012D
:103620001186108689819A81FC0113861286898110
:103630009A81FC01118A108A89819A81FC0117867E
:1036400016868B819C81AD81BE81BC01CD01F8DEE7
:10365000000026960FB6F894DEBF0FBECDBFDF91F7
:10366000CF910895CF93DF93CDB7DEB72E970FB6E6
:10367000F894DEBF0FBECDBF69877A878B879C87A2
:103680005E874D8729853A8544E4429FC001439F68
:10369000900D112488559B4F9E838D838D819E8133
:1036A000FC0184819581A681B781892B8A2B8B2B84
:1036B00009F4C4C01A82198254C08D819E81FC0114
:1036C0002085318589819A81880F991F880F991FDC
:1036D000820F931FFC018281938198878F831C82C4
:1036E0001B822FC08B819C81880F991F2F81388569
:1036F000820F931FFC0180819181892BE9F08B81DE
:103700009C81880F991F2F813885820F931FFC01A0
:1037100080819181FC01848195810E947A528B8104
:103720009C81880F991F2F813885820F931FFC0180
:10373000808191810E947A528B819C8101969C8329
:103740008B832B813C818D859E852817390754F208
:103750008F8198850E947A5289819A8101969A83F5
:10376000898389819A819C01990F440B550B8D8126
:103770009E81FC0184819581A681B7812817390734
:103780004A075B070CF499CF8D819E81FC018085EF
:1037900091850E947A528D819E81FC01828593855C
:1037A000892B79F11A8219821EC08D819E81FC01BC
:1037B0004285538529813A81C901880F991F880F55
:1037C000991F880F991F821B930B880F991F840FD5
:1037D000951FFC01848195810E947A5289819A818A
:1037E00001969A83898329813A818D859E85281740
:1037F0003907DCF28D819E81FC01828593850E94D0
:103800007A528D819E81FC01808991890E947A5231
:103810008D819E81FC01868597850E947A528985DB
:103820009A85AB85BC85BC01CD010ADE89859A8568
:10383000AB85BC85BC01CD01BCDE01C000002E966D
:103840000FB6F894DEBF0FBECDBFDF91CF910895C4
:10385000CF93DF9300D000D000D0CDB7DEB76B831D
:103860007C838D839E832B813C8144E4429FC001F5
:10387000439F900D112488559B4F9A83898389819A
:103880009A81FC018289938984309105A0F0069782
:1038900098F489819A8125E030E0FC01338B228BFA
:1038A00029813A818FEF9FEFDC01F901828F938F9D
:1038B000A48FB58F01C00000000026960FB6F894C3
:1038C000DEBF0FBECDBFDF91CF9108950F931F9341
:1038D000CF93DF93CDB7DEB767970FB6F894DEBF0F
:1038E0000FBECDBF9F878E87798B688B5B8B4A8B92
:1038F0000C8B1D8B2E8B3F8B1D828A899B89998710
:1039000088872C893D8944E4429FC001439F900DE4
:10391000112488559B4F9F838E832E813F818C89F4
:103920009D89AE89BF89F90180839183A283B38386
:10393000288939898C899D89AE89BF89A901BC01F3
:10394000CD0190DE288539858E819F81049644E0E3
:1039500050E0B9010E94075388859985049699879C
:1039600088878E819F81FC0184819581A681B781A2
:1039700064E070E00E94C4519C018E819F81DC0153
:1039800019963C932E9318978E819F81FC01808518
:103990009185892B19F481E08D83D7C01C821B820D
:1039A00021C08E819F81DC0118962D913C918B81E5
:1039B0009C81880F991F880F991FA901480F591FD3
:1039C0009E01285F3F4F688979898E859F855DDBE1
:1039D0008D838D81882309F0B3C08B819C810196F2
:1039E0009C838B838B819C819C01990F440B550B8D
:1039F0008E819F81FC0184819581A681B7812817E2
:103A000039074A075B076CF2888999896EE070E094
:103A10000E94C4519C018E819F81DC011B963C93C6
:103A20002E931A971A8219821C821B8248C088859D
:103A30009985FC0180819181A281B3818A879B87CE
:103A4000AC87BD87888599850496998788872A855C
:103A50003B854C855D858E819F81DC011A96ED91B9
:103A6000FC916B817C81CB01880F991F880F991F76
:103A7000880F991F861B970B880F991F8E0F9F1F0A
:103A8000BA01A90172DC8D838D81882309F05AC0A7
:103A90008A859B85AC85BD8521E0892B8A2B8B2B64
:103AA00009F420E0822F90E029813A81820F931F50
:103AB0009A8389838B819C8101969C838B832B8144
:103AC0003C8188899989281739070CF4B0CF8E81F9
:103AD0009F81FC011586148689819A81880F991F20
:103AE000880F991F880F991F0E94DE519C018E81BB
:103AF0009F81DC0151963C932E9350978E819F813C
:103B0000FC0180899189892B19F481E08D831DC086
:103B100089819A81880F991F0E94DE519C018E81B4
:103B20009F81DC011F963C932E931E978E819F816F
:103B3000FC0186859785892B39F481E08D8305C04A
:103B4000000003C0000001C000008D81882351F0F7
:103B5000288939898C899D89AE89BF89A901BC01D1
:103B6000CD0180DD8D8167960FB6F894DEBF0FBE64
:103B7000CDBFDF91CF911F910F910895CF93DF9328
:103B8000CDB7DEB7AD970FB6F894DEBF0FBECDBF91
:103B90009FA38EA379A768A72AA73BA74CA75DA7D9
:103BA000198288A599A59B838A832AA53BA544E40D
:103BB000429FC001439F900D1124429688559B4F10
:103BC0009F838E838A819B81FC0180819181A28168
:103BD000B3818E879F87A88BB98B8A819B8104963E
:103BE0009B838A838E859F85A889B9899C018E8154
:103BF0009F81FC01338322838E819F8104962A81D9
:103C00003B8144E050E0B9010E9407538A819B81C7
:103C100004969B838A838E819F8108962A813B81AB
:103C200044E050E0B9010E9407538A819B810496C9
:103C30009B838A838E819F810C962A813B8144E0FD
:103C400050E0B9010E9407538A819B8104969B83AF
:103C50008A838E819F814C962A813B8144E050E08B
:103C6000B9010E9407538A819B8104969B838A83B2
:103C70008E819F81FC01848D958DA68DB78D99874E
:103C8000888788859985181619060CF087C08E815B
:103C90009F814C969B878A8788859985880F991F75
:103CA000880F991F0E94DE519C018A859B85FC012B
:103CB000358324838A859B85FC0184819581892BAA
:103CC00019F481E08983EAC01D821C823DC08A8587
:103CD0009B85FC01248135818C819D81880F991FF2
:103CE000880F991F820F931F9D878C878A819B81E4
:103CF00020E1FC01DE01569601900D922A95E1F734
:103D00008A819B8140969B838A834C855D859E0139
:103D10002A5E3F4F8EA19FA1B901C3D88A859B859A
:103D2000FC01268137818C859D85FC0182819381F0
:103D3000280F391F8A859B85FC01378326838C8158
:103D40009D8101969D838C838C819D819C01990F1F
:103D5000440B550B8A859B85FC0180819181A28152
:103D6000B381281739074A075B070CF4B0CF8A855F
:103D70009B85FC01868197810E94DE519C018E818A
:103D80009F81FC0135A324A38E819F81FC0184A126
:103D900095A1892B19F481E0898380C08A819B8158
:103DA000FC0180819181A281B3818A8B9B8BAC8B3A
:103DB000BD8B8A819B8104969B838A838A899B8998
:103DC000AC89BD89892B8A2B8B2B41F08A899B89F1
:103DD000AC89BD890297A105B10519F481E090E095
:103DE00002C080E090E02E813F81F901918B808BB1
:103DF0008A899B89AC89BD890197A105B10541F0EC
:103E00008A899B89AC89BD890297A105B10519F4FE
:103E100081E090E002C080E090E02E813F81F901D6
:103E2000938B828B8E819F8144962A813B8144E0D3
:103E300050E0B9010E9407538A819B8104969B83BD
:103E40008A838E819F81FC0184859585A685B785AF
:103E5000BB23ECF48E819F81FC0184859585A6852A
:103E6000B785B095A095909581959F4FAF4FBF4F67
:103E70002E813F81F90180A791A7A2A7B3A78E81C8
:103E80009F81FC01148615861686178607C08E81D1
:103E90009F81FC0110A611A612A613A68981882372
:103EA00039F08AA59BA5ACA5BDA5BC01CD01C8DA9A
:103EB0008981AD960FB6F894DEBF0FBECDBFDF91FE
:103EC000CF910895CF93DF93CDB7DEB72C970FB680
:103ED000F894DEBF0FBECDBF6F83788789879A873E
:103EE0005C874B872F81388544E4429FC001439F04
:103EF000900D112488559B4F9C838B831092A704AF
:103F00008B819C81FC0115A614A61A82198243C0DC
:103F10008B819C81FC014285538529813A81C901AD
:103F2000880F991F880F991F880F991F821B930B69
:103F3000880F991F840F951F9E838D838D819E818D
:103F4000FC01828193811816190604F58D819E81EA
:103F5000FC01248135818D819E81FC01378326837C
:103F60008D819E81FC01248135818D819E81FC01A2
:103F7000318720878D819E81FC01138612868D8179
:103F80009E8121E030E0FC013183208389819A8188
:103F900001969A83898329813A818B859C8528178C
:103FA00039070CF4B5CF8B819C81FC0113A612A6B6
:103FB0008B819C81FC0111AE10AE8B819C81CE96D1
:103FC000FC0110821182128213828B819C8122E07B
:103FD00030E0FC01338B228B00002C960FB6F89456
:103FE000DEBF0FBECDBFDF91CF910895CF93DF939A
:103FF000CDB7DEB728970FB6F894DEBF0FBECDBFA2
:104000006B837C838D839E8358874F832B813C8178
:1040100044E4429FC001439F900D112488559B4F5B
:104020009A83898389819A81FC01138A128A2F815C
:1040300038858B819C81AD81BE81A901BC01CD01F8
:1040400011DB000028960FB6F894DEBF0FBECDBF7F
:10405000DF91CF910895CF93DF9300D000D000D0AF
:10406000CDB7DEB76B837C838D839E832B813C81B0
:1040700044E4429FC001439F900D112488559B4FFB
:104080009A83898389819A81FC0182899389853009
:10409000910518F4019720F420C0059799F01DC0F0
:1040A00029813A818FEF9FEFDC01F901828F938F95
:1040B000A48FB58F89819A8125E030E0FC01338B94
:1040C000228B0BC029813A818FEF9FEFDC01F90130
:1040D000828F938FA48FB58F0000000026960FB6B5
:1040E000F894DEBF0FBECDBFDF91CF910895CF937F
:1040F000DF93CDB7DEB72A970FB6F894DEBF0FBEB9
:10410000CDBF9E838D834F83588769877A872F81A0
:10411000388544E4429FC001439F900D1124885587
:104120009B4F9A83898389819A81FC0142855385BB
:104130002D813E81C901880F991F880F991F880F13
:10414000991F821B930B880F991F840F951F9C83C7
:104150008B8381E08093A7048B819C81FC01228565
:1041600033858B819C81FC01318720878B819C81E9
:10417000FC01208531858B819C81FC0186819781A2
:1041800041E02817390709F040E0242F30E08B8107
:104190009C81FC013183208300002A960FB6F8949D
:1041A000DEBF0FBECDBFDF91CF910895CF93DF93D8
:1041B000CDB7DEB72D970FB6F894DEBF0FBECDBFDB
:1041C0009F838E83798768875B874A873D872C87A3
:1041D00019828E819F81FC01848195812E813F818E
:1041E000F90122813381820F931F9B838A838A8501
:1041F0009B85FC01208131818E819F81FC0180851E
:1042000091858217930740F08E819F81FC01808108
:104210009181892B09F4AFC08A819B812A853B85D6
:10422000F90120813181AC01421B530B9A018E812F
:104230009F81FC0180859185AC018E819F81FC016D
:1042400084819581BA01681B790BCB01820F931F82
:104250009D838C832C813D8188859985281739071A
:104260001CF481E08983CBC08A859B85FC01208179
:10427000318188859985820F931F2A813B8182171E
:10428000930750F58C859D8528853985FC01318300
:1042900020838A859B85FC01208131818C859D85C9
:1042A000FC01338322838C859D85FC011582148259
:1042B0008C859D85FC01178216828A859B85FC0171
:1042C0002081318188859985280F391F8A859B85B2
:1042D000FC013183208393C08A819B812A853B85A1
:1042E000F90120813181AC01421B530B9A018C856D
:1042F0009D85FC01318320838A859B85FC0120817B
:1043000031818C859D85FC01338322838C859D853D
:10431000FC018081918128853985281B390B8C858A
:104320009D85FC01358324838C859D85FC018481DA
:1043300095811816190634F48E819F81FC018481C1
:10434000958102C080E090E02C853D85F90197833E
:1043500086838E819F81FC01848195812C853D859A
:10436000F90124813581280F391F8A859B85FC013D
:104370003183208344C08E819F81FC01808591859B
:104380009C018A859B85FC0180819181A901481B44
:10439000590BCA019D838C832C813D818885998529
:1043A000281739071CF481E0898329C08C859D85F5
:1043B00028853985FC01318320838A859B85FC0112
:1043C000208131818C859D85FC01338322838C85FE
:1043D0009D85FC01158214828C859D85FC011782C8
:1043E00016828A859B85FC0120813181888599858B
:1043F000280F391F8A859B85FC01318320838981A1
:104400002D960FB6F894DEBF0FBECDBFDF91CF91D2
:104410000895CF93DF93CDB7DEB76A970FB6F894C0
:10442000DEBF0FBECDBF6F8B788F898F9A8F2F899C
:10443000388D44E4429FC001439F900D112488555C
:104440009B4F98878F838F81988542969A8789871B
:1044500089859A85FC0184A195A19C878B878B8592
:104460009C859C838B831A82198241C189859A8598
:10447000FC0120A131A189819A81880F991F880FA1
:10448000991F820F931F9E878D878D859E85FC01C6
:10449000828193819695879596958795988B8F873E
:1044A00089859A85FC0186A197A1892B09F4FEC014
:1044B00089859A85FC0184899589A689B789898B24
:1044C0009A8BAB8BBC8B8D859E85FC018081918105
:1044D0009E8B8D8B1E821D82E1C089859A85FC0191
:1044E00080899189892B09F466C08D819E81880F0E
:1044F000991F880F991F2D893E89820F931FFC01F8
:1045000080819181A281B3819C01AD0169897A8901
:104510008B899C890E948B441816CCF08D819E81DA
:10452000880F991F880F991F2B813C81820F931F41
:10453000FC0180819181A281B3819C01AD016989D7
:104540007A898B899C890E94D146181694F18D81B5
:104550009E81880F991F880F991F2D893E89820F90
:10456000931FFC0180819181A281B3819C01AD01E7
:1045700069897A898B899C890E948B448823DCF421
:104580008D819E81880F991F880F991F2B813C81F7
:10459000820F931FFC0180819181A281B3819C01D4
:1045A000AD0169897A898B899C890E948B44882313
:1045B00011F481E0B7C089859A85FC0182899389CD
:1045C000892B09F466C08D819E81880F991F880F01
:1045D000991F2D893E89820F931FFC018081918153
:1045E000A281B3819C01AD0169897A898B899C89FB
:1045F0000E94D1461816CCF48D819E81880F991F98
:10460000880F991F2B813C81820F931FFC018081B1
:104610009181A281B3819C01AD0169897A898B89DD
:104620009C890E948B44181694F58D819E81880F79
:10463000991F880F991F2D893E89820F931FFC01B6
:1046400080819181A281B3819C01AD0169897A89C0
:104650008B899C890E948B448823D9F48D819E810B
:10466000880F991F880F991F2B813C81820F931F00
:10467000FC0180819181A281B3819C01AD01698996
:104680007A898B899C890E948B44882314F481E069
:1046900049C08D819E8101969E838D832D813E81AF
:1046A0008F859889281739070CF417CF8D859E853B
:1046B000FC0182819381AC018D859E85FC01208166
:1046C00031818B819C81B9010E9407538F85988924
:1046D000880F991F880F991F2B813C81820F931F90
:1046E0009C838B8389819A8101969A8389838981AE
:1046F0009A819C01990F440B550B89859A85FC0181
:10470000848D958DA68DB78D281739074A075B07CD
:104710000CF4ACCE89859A8521E030E0FC0137A30A
:1047200026A380E06A960FB6F894DEBF0FBECDBF19
:10473000DF91CF9108950F931F93CF93DF93CDB760
:10474000DEB7C256D1090FB6F894DEBF0FBECDBF9B
:10475000FE01E75AFF4F91838083CE01855A9F4F18
:10476000FC014083518362837383CE01815A9F4F42
:10477000FC010083118322833383CE01815A9F4F32
:10478000FC012081318144E4429FC001439F900D90
:10479000112488559B4F9E838D831A8219828D81A7
:1047A0009E81429698878F838D819E81FC014285F0
:1047B0005385CE01875A9F4FFC0120813181C90169
:1047C000880F991F880F991F880F991F821B930BC1
:1047D000880F991F840F951F9A8789878F819885E5
:1047E000FC0180819181029709F05CC08F819885DE
:1047F000FC01848D958DA68DB78D892B8A2B8B2BF3
:1048000041F48F81988524E030E0FC0131832083DE
:1048100049C08F819885FC01828193819E01275A2E
:104820003F4FF9012081318128173907D9F5CE0191
:10483000815A9F4FFC0180819181A281B381BC018B
:10484000CD01E7DD882371F18F819885FC01848596
:104850009585A685B785892B8A2B8B2BA9F48F810B
:10486000988524E030E0FC01318320838F81988596
:10487000FC0184A595A5A6A5B7A59C018F81988567
:10488000FC01318F208F0EC08F81988523E030E0AE
:10489000FC01318320838F81988521E030E0FC0189
:1048A000318F208F8F819885FC01808191810297C3
:1048B00079F48F819885FC0180A591A5A2A5B3A567
:1048C000181619061A061B061CF481E090E002C0B7
:1048D00080E090E09C878B878F819885FC018081A8
:1048E0009181049729F08B859C85892B09F47DC3E0
:1048F00089859A85FC0182819381892B09F475C38E
:1049000089859A85FC0126813781CE018F5B9F4F77
:10491000FC01318320831E861D8681E090E0988B08
:104920008F8782E090E09A8B898B83E090E09C8B6C
:104930008B8B84E090E09E8B8D8BCE018D5B9F4FA7
:1049400024E1FC01322F11923A95E9F79E012D5B8B
:104950003F4F8D899E89880F991F880F991F280FB7
:10496000391FCE01815A9F4FFC0180819181A28124
:10497000B381F90180839183A283B3838B859C8566
:10498000892B09F485C08F819885FC0124A535A564
:1049900046A557A58F819885FC0180A591A5A2A564
:1049A000B3A5281739074A075B0709F071C0898545
:1049B0009A85FC018481958129853A85F9012281B6
:1049C0003381820F931F988F8F8B89859A85FC0185
:1049D0008085918504969A8F898F298D3A8DCE0195
:1049E000895A9F4F44E050E0B9010E940753CE011D
:1049F000895A9F4FFC018081918108969C01CE01CC
:104A0000895A9F4FFC013183208389859A85FC0157
:104A1000808591859E01295A3F4FF901208131817E
:104A2000280F391F89859A85FC0131872087898560
:104A30009A85FC01808591859C018F89988DA901BB
:104A4000481B590BCA019C8F8B8F8B8D9C8D992392
:104A500074F089859A85FC01248135818B8D9C8D2C
:104A6000280F391F89859A85FC01318720878F811E
:104A70009885FC0184A595A5A6A5B7A50197A109D0
:104A8000B1092F813885F90184A795A7A6A7B7A7F3
:104A900084E190E09E8F8D8F9E01275C3F4FAE0199
:104AA0004F5B5F4F6D8D7E8D89859A857FDB882F6B
:104AB00090E09A83898389819A81892B09F097C232
:104AC0008D8D9E8D08979E8F8D8F9E012D5B3F4F04
:104AD0008F859889880F991F880F991F820F931FC0
:104AE000FC0120813181428153818D8D9E8D092E63
:104AF000000CAA0BBB0B820F931FA41FB51FAE01A6
:104B00004D5B5F4F2F853889220F331F220F331FD4
:104B1000240F351FF90180839183A283B3839E0103
:104B20002F5C3F4FAE014F5B5F4F89859A8564E0F4
:104B300070E03CDB882F90E09A83898389819A8199
:104B4000892B09F056C29E012D5B3F4F8F859889B6
:104B5000880F991F880F991F820F931FFC01808176
:104B60009181A281B3810496A11DB11DAE014D5B5F
:104B70005F4F2F853889220F331F220F331F240FD9
:104B8000351FF90180839183A283B38389A99AA9F0
:104B9000AC018BA99CA99E01255A3F4FB9010E94E7
:104BA00007538FA998AD892BA1F089A99AA99C01D7
:104BB000CE01855A9F4F820F931F98A38F8F8DA987
:104BC0009EA9AC018FA998AD2F8D38A1B9010E9483
:104BD00007531DA61EA61FA618AA64C18D819E811B
:104BE000FC01208531858DA59EA5AFA5B8A9880FAC
:104BF000991F880F991F820F931F9CA38BA38BA1D2
:104C00009CA1FC0180819181FC018081882309F4B1
:104C10003EC18BA19CA1FC0180819181FC0180811E
:104C2000833009F434C18BA19CA1FC012281338122
:104C3000CE01875A9F4FFC0180819181880F991F77
:104C4000820F931FFC01808191819EA38DA38DA172
:104C50009EA1892B09F41BC19E012D5B3F4F8989C1
:104C60009A89880F991F880F991F820F931FFC0143
:104C700080819181A281B3810196A11DB11DAE01F8
:104C80004D5B5F4F29893A89220F331F220F331F53
:104C9000240F351FF90180839183A283B38384E0BD
:104CA00090E09E8F8D8F9E012F5C3F4FAE014F5B3A
:104CB0005F4F6D8D7E8D89859A8578DA882F90E09B
:104CC0009A83898389819A81892B09F094C19E01F5
:104CD0002D5B3F4F8F859889880F991F880F991FEB
:104CE000820F931FFC0120813181428153818D8D80
:104CF0009E8D092E000CAA0BBB0B820F931FA41FC5
:104D0000B51FAE014D5B5F4F2F853889220F331FD2
:104D1000220F331F240F351FF90180839183A28353
:104D2000B38389A99AA9AC018BA99CA99E01235D93
:104D30003F4FB9010E9407538FA998AD892B99F075
:104D400089A99AA99C01CE018D96820F931F98A7DD
:104D50008FA38DA99EA9AC018FA998AD2FA138A5CD
:104D6000B9010E9407531C821B827EC08DA19EA1A7
:104D7000FC01248135818B819C81880F991F880FCC
:104D8000991F820F931F9AA789A789A59AA5FC014D
:104D9000628173819E012F5C3F4FAE014F5B5F4F7D
:104DA00089859A8503DA882F90E09A83898389819F
:104DB0009A81892B09F021C19E012D5B3F4F8F8580
:104DC0009889880F991F880F991F820F931FFC01E4
:104DD000208131814281538189A59AA5FC0182817C
:104DE0009381092E000CAA0BBB0B820F931FA41FEB
:104DF000B51FAE014D5B5F4F2F853889220F331FE2
:104E0000220F331F240F351FF90180839183A28362
:104E1000B38389A99AA9AC0189A59AA5FC0120812F
:104E200031818BA99CA9B9010E9407538FA998AD24
:104E3000892BA9F089A59AA5FC018081918129A9D6
:104E40003AA9820F931F9CA78BA78DA99EA9AC019D
:104E50008FA998AD2BA53CA5B9010E9407538B8162
:104E60009C8101969C838B838B819C819C01990FF3
:104E7000440B550B8DA19EA1FC0180819181A281E3
:104E8000B381281739074A075B070CF46FCF8DA54C
:104E90009EA5AFA5B8A90196A11DB11D8DA79EA77E
:104EA000AFA7B8AB8D819E81FC01248135814681FD
:104EB00057818DA59EA5AFA5B8A982179307A40712
:104EC000B5070CF48BCE9E012D5B3F4F89899A89E3
:104ED000880F991F880F991F820F931FFC018081F3
:104EE0009181A281B381892B8A2B8B2B09F487C0F6
:104EF0009E012D5B3F4F8D859E85880F991F880FE2
:104F0000991F280F391F8AE190E0A0E0B0E0F90175
:104F100080839183A283B383CE01875A9F4FFC0184
:104F200080819181092E000CAA0BBB0BAE014D5B59
:104F30005F4F2B893C89220F331F220F331F240F11
:104F4000351FF90180839183A283B38389AD9AAD24
:104F5000AC018BAD9CAD9E012D5B3F4FB9010E9412
:104F60000753CE01CF96FC0180819181892BB9F046
:104F700089AD9AAD9C01CE018D5B9F4F820F931F2F
:104F80009AA389A38DAD9EADAC01CE01CF96FC0155
:104F90008081918129A13AA1B9010E940753CE01D4
:104FA0008F5B9F4FFC012081318189859A85FC01AF
:104FB0003783268389859A85FC01118210828B852F
:104FC0009C85892BE9F08F819885FC0184A595A5A6
:104FD000A6A5B7A50196A11DB11D2F813885F901A0
:104FE00084A795A7A6A7B7A70BC0000009C000001B
:104FF00007C0000005C0000003C0000001C00000A1
:105000008B859C85892B91F489819A81892B71F0FC
:105010008F81988521E030E0FC01338F228F8F81D2
:10502000988525E030E0FC01318320830000CE59D3
:10503000DF4F0FB6F894DEBF0FBECDBFDF91CF912B
:105040001F910F910895CF93DF93CDB7DEB72A97C5
:105050000FB6F894DEBF0FBECDBF6D837E838F8306
:1050600098875A8749872D813E8144E4429FC00139
:10507000439F900D112488559B4F9A838983898182
:105080009A8142969C838B838B819C81FC018081D9
:105090009181892B09F47DC08B819C81FC018081E9
:1050A0009181019749F58B819C81FC01808D918DC7
:1050B000AC014F5F5F4F2B813C81F901518F408FD5
:1050C0009C01990F440B550B8B819C81FC018085C1
:1050D0009185A285B385281739074A075B0709F030
:1050E0005AC029853A858D819E81AF81B885A901F5
:1050F000BC01CD010E94621F8B819C81FC018081DB
:105100009181039709F048C08B819C81FC01808DBF
:10511000918DAC014F5F5F4F2B813C81F901518F25
:10512000408F9C01990F440B550B8B819C81FC0196
:1051300084859585A685B785281739074A075B07B3
:105140005CF18B819C81FC0184A595A5A6A5B7A5E2
:105150009C018B819C81FC01318F208F8B819C81F4
:1051600024E030E0FC01318320838B819C81FC01B1
:1051700080A591A5A2A5B3A5181619061A061B06A7
:105180005CF48B819C8121E030E0FC0131AB20ABF1
:1051900003C0000001C000002A960FB6F894DEBFDD
:1051A0000FBECDBFDF91CF910895CF93DF93CDB7E1
:1051B000DEB728970FB6F894DEBF0FBECDBF6D8364
:1051C0007E838F8398872D813E8144E4429FC00176
:1051D000439F900D112488559B4F9A838983898121
:1051E0009A8142969C838B838B819C81FC01808178
:1051F0009181892B89F18B819C81FC018081918136
:10520000049759F58B819C81FC01808D918D9C01C7
:105210002F5F3F4F8B819C81FC01318F208F8B81D1
:105220009C81FC01808D918D9C01990F440B550B45
:105230008B819C81FC0184819581A681B78128178F
:1052400039074A075B0749F48B819C8125E030E0F0
:10525000FC013183208301C0000028960FB6F8942A
:10526000DEBF0FBECDBFDF91CF910895CF93DF9307
:10527000CDB7DEB768970FB6F894DEBF0FBECDBFCF
:105280009A8B898B4B8B5C8B6D8B7E8B388F2F8BA6
:105290002B893C8944E4429FC001439F900D112417
:1052A00088559B4F9C838B838B819C810C969E831E
:1052B0008D838D819E81FC01118210821A82198258
:1052C000C4C08B819C81FC014285538529813A8130
:1052D000C901880F991F880F991F880F991F821B7A
:1052E000930B880F991F840F951F98878F838F8149
:1052F0009885FC0180819181892B09F0A1C08F8163
:105300009885FC01808591859A8789878F8198850A
:10531000FC01828193819C878B878F819885FC011A
:10532000868197819E878D878D819E81FC01248156
:1053300035818D819E81FC0180819181880F991F2B
:10534000880F991F880F991F820F931F988B8F8743
:105350008D819E81FC01228133818D819E81FC01A2
:1053600080819181880F991F820F931F29813A8133
:10537000FC01318320838D819E81FC01808191819C
:105380009C012F5F3F4F8D819E81FC0131832083E3
:105390008F85988929853A85FC01338322838F8103
:1053A00098852D853E85FC01338722872D853E8596
:1053B00089859A8582179307B0F42D853E85898566
:1053C0009A85281B390B8F859889FC0131832083AE
:1053D0008F859889FC01158214828F859889FC013C
:1053E000178216822DC08F819885FC01248135811A
:1053F0008B859C85820F931F9C0189859A85281B2C
:10540000390B8F859889FC01318320838D859E859A
:105410002F813885F90124813581AC01421B530B62
:105420009A018F859889FC01358324838F81988523
:10543000FC01248135818F859889FC01378326837F
:1054400089819A8101969A83898329813A818F89FA
:10545000988D281739070CF434CF8D819E81FC017B
:105460002081318189899A89FC01318320838D8152
:105470009E81FC012481358189899A89FC013383CD
:1054800022838D819E81FC012281338189899A89C1
:10549000FC0135832483000068960FB6F894DEBFC4
:1054A0000FBECDBFDF91CF910895CF93DF93CDB7DE
:1054B000DEB72A970FB6F894DEBF0FBECDBF9E832E
:1054C0008D834F83588769877A872F81388544E495
:1054D000429FC001439F900D112488559B4F9A8392
:1054E000898389819A810C969C838B838B819C8193
:1054F000FC01118210828B819C81FC012081318111
:105500008D819E81FC01318320838D819E81FC01F0
:105510001382128200002A960FB6F894DEBF0FBEE7
:10552000CDBFDF91CF910895CF93DF93CDB7DEB795
:105530002E970FB6F894DEBF0FBECDBF98878F832E
:1055400049875A876B877C873E872D8789859A850F
:10555000AB85BC8544E4489F9001499F300D1124E0
:10556000C90188559B4F9A83898389819A81429684
:105570009C838B838B819C81FC01808191819E83A4
:105580008D838D819E81049729F08D819E81059761
:1055900009F05CC089859A85AB85BC852F813885EB
:1055A000AC01BD01C90181DF89859A85AB85BC85C8
:1055B0002D853E85EF81F885AC01BD01CF0156DE1A
:1055C0008F819885FC0180819181892B09F049C0E8
:1055D0008D819E81059709F044C01092A7048B81AC
:1055E0009C81FC0180859185A285B3858F3F9F4F6B
:1055F000AF4FBF4FA9F4CE010996AC0164E070E053
:1056000080E290E00E948A3389859A85AB85BC85CB
:105610002D853E85A901BC01CD010E94F61F21C048
:10562000CE010996AC0164E070E08FE190E00E9449
:105630008A338B819C81FC01118E108E8B819C8121
:1056400021E030E0FC01318320830BC089859A85FD
:10565000AB85BC852F813885AC01BD01C90125DF33
:1056600001C0000000002E960FB6F894DEBF0FBEFA
:10567000CDBFDF91CF910895CF93DF9300D000D0BD
:1056800000D0CDB7DEB79A8389837C836B835E833A
:105690004D830E94E539882319F116C028ED38EBB7
:1056A00045E050E060E070E0CB010E94023F4D8198
:1056B0005E812B813C8189819A81B9010E94353FAD
:1056C0008B819C810E94A53E80913005909131058F
:1056D000892B31F48D819E81FC0180818823F1F238
:1056E0008091F8019091F901049731F083E090E006
:1056F0009093F9018093F801000026960FB6F89474
:10570000DEBF0FBECDBFDF91CF910895CF93DF9362
:1057100000D000D000D0CDB7DEB79A8389837C83D8
:105720006B835E834D838091F8019091F90104971A
:1057300069F04D815E812B813C8189819A81B9011B
:105740000E94353F8B819C810E94A53E00002696D9
:105750000FB6F894DEBF0FBECDBFDF91CF91089595
:10576000CF93DF9300D000D000D0CDB7DEB79A83BF
:1057700089834B835C836D837E838B819C81AD8128
:10578000BE8129813A81AC01BD01C9010E94564107
:10579000000026960FB6F894DEBF0FBECDBFDF9196
:1057A000CF910895CF93DF93CDB7DEB70E943541F7
:1057B0000000DF91CF910895CF93DF9300D0CDB754
:1057C000DEB79A83898389819A810E940C41000007
:1057D0000F900F90DF91CF910895CF93DF9300D07A
:1057E000CDB7DEB79A8389830E94CD3E00000F902B
:1057F0000F90DF91CF910895CF93DF9300D0CDB775
:10580000DEB79A83898389819A810E94BA40000019
:105810000F900F90DF91CF910895CF93DF9300D039
:10582000CDB7DEB79A8389838091FA019091FB010D
:10583000A091FC01B091FD0120E030E0A901BC0184
:10584000CD010E94D14688239CF48091FA01909169
:10585000FB01A091FC01B091FD0120E030E040E8A7
:105860005FEBBC01CD010E948B44882309F00FC07F
:105870008091FA019091FB01A091FC01B091FD0192
:1058800029813A81F90180839183A283B383000047
:105890000F900F90DF91CF910895CF93DF9300D0B9
:1058A000CDB7DEB79A83898389819A81B6DF0000FC
:1058B0000F900F90DF91CF910895CF93DF9300D099
:1058C00000D0CDB7DEB79A8389837C836B8360E099
:1058D00070E080E090E00E94A03900000F900F90EF
:1058E0000F900F90DF91CF910895CF93DF93CDB7B5
:1058F000DEB70000DF91CF910895EF92FF920F93F2
:105900001F93CF93DF93CDB7DEB762970FB6F894AE
:10591000DEBF0FBECDBF9C878B877E876D872F87AD
:10592000388B498B5A8B1A8219828D859E859C8370
:105930008B838FEF9FEF9E838D8346C08D819E81E9
:10594000CC01A0E0B0E02F85388949895A898217B7
:105950009307A407B50718F08F85988902C08D8139
:105960009E8198878F839E01275F3F4F4F81588587
:105970006B817C818B859C850E94C7419A8389833A
:1059800089819A81019619F489819A8128C0898533
:105990009A85CC01A0E0B0E02F85388949895A89E1
:1059A00079018A01E81AF90A0A0B1B0BD801C70111
:1059B0008F87988BA98BBA8B89859A852B813C819F
:1059C000820F931F9C838B838F859889A989BA89BD
:1059D000892B8A2B8B2B09F0B1CF89819A81629612
:1059E0000FB6F894DEBF0FBECDBFDF91CF911F91F0
:1059F0000F91FF90EF900895CF93DF93CDB7DEB76F
:105A000040E855E260E070E080E090E027D00000E0
:105A1000DF91CF910895CF93DF9300D000D000D0D5
:105A2000CDB7DEB79A8389834B835C836D837E8396
:105A30008B819C81AD81BE81E981FA8126E0AC0138
:105A4000BD01CF010E94AE4C000026960FB6F8941F
:105A5000DEBF0FBECDBFDF91CF910895CF93DF930F
:105A600000D000D000D0CDB7DEB79A8389834B83B6
:105A70005C836D837E838B819C81AD81BE81AC0113
:105A8000BD0183E795E0C7DF000026960FB6F894C6
:105A9000DEBF0FBECDBFDF91CF910895CF93DF93CF
:105AA000CDB7DEB70000DF91CF910895EF92FF925E
:105AB0000F931F93CF93DF9300D000D01F92CDB7E9
:105AC000DEB719820E941948DC01CB0180933605AC
:105AD00090933705A0933805B0933905209136058A
